:100000000A128A110C280134FE00030EF0000A08BF
:10001000F1000A128A15E62A0A128A110F2883179C
:100020009C30FD000430FE00F430FF00903084006E
:100030000A168A1169240A128A118313E730FD0017
:100040001430FE003130FF00D83084000A168A11C7
:1000500069240A128A116F30FD001330FE00BA3095
:10006000FF006A3084000A168A1169240A128A1174
:100070000A128A1103200A128A11FB00A0308400A0
:10008000D8300A168A11C5230A128A114930840011
:100090006A300A168A11C5230A128A11F901FA0177
:1000A00083010A128A11CF2A83120313B000313060
:1000B000F2005D30F3000030F4000230F500003053
:1000C000F6000A168A11BC270A128A11831203133A
:1000D000B3013430F2005F30F3000030F40002303E
:1000E000F5000030F6000A168A11BC270A128A11A0
:1000F00083120313B6013730F2006130F300003091
:10010000F4000230F5000030F6000A168A11BC2710
:100110000A128A1183120313B9013108AC00AD0130
:100120002C08F2002D08F3000A30F4000030F5002E
:100130000A168A1144250A128A11831203133208FF
:100140007207AE000030031801307307AF002E08AD
:10015000F03EBA002F080318013EFD3EBB003408F4
:10016000AC00AD012C08F2002D08F3000A30F400B9
:100170000030F5000A168A1144250A128A118312EA
:10018000031335087207AE000030031801307307FF
:10019000AF002E08F03EBC002F080318013EFD3EC4
:1001A000BD003708AC00AD012C08F2002D08F300AB
:1001B0000A30F4000030F5000A168A1144250A12AC
:1001C0008A118312031338087207AE000030031837
:1001D00001307307AF002E08F03EBE002F08031851
:1001E000013EFD3EBF002F303006031DF828F928E0
:1001F00002290130D30703305302031C00290129CF
:100200000229D30137303006031D07290829612947
:100210000130D2005308031D0E290F292729013070
:10022000BE070318BF0A0030BF073F08803AFF002F
:1002300080307F02031D1E293C303E02031C212911
:100240002229612983120313BE01BF0161295303CF
:10025000031D2B292C2944290130BC070318BD0A92
:100260000030BD073D08803AFF0080307F02031D4B
:100270003B293C303C02031C3E293F296129831263
:100280000313BC01BD01612902305306031D492936
:100290004A2961290130BA070318BB0A0030BB079D
:1002A0003B08803AFF0080307F02031D5929183037
:1002B0003A02031C5C295D29612983120313BA01E8
:1002C000BB011F30831203133006031D68296929FF
:1002D000D1295203031D6D296E29D1290A168A11CD
:1002E000CD230A128A11D0300A168A1124240A1248
:1002F0008A1100300A168A1124240A128A118312E4
:1003000003133E080A168A1142270A128A117F39FE
:100310000A168A1124240A128A11831203133C0834
:100320000A168A1142270A128A110A168A112424EF
:100330000A128A11831203133A080A168A114227F5
:100340000A128A110A168A1124240A128A110A161C
:100350008A11D6230A128A1183120313D2010A16B4
:100360008A110A240A128A114F3083120313A00043
:100370008630A1008030A2000A168A1175260A1262
:100380008A11333083120313AE00BB30AD00DF306F
:10039000AC00AC0BC929AD0BC929AE0BC92907307C
:1003A000CE2A0A30F2000030F3003B08F5003A088C
:1003B000F4000A128A151B220A128A117208303EB2
:1003C00083120313B1000A30F2000030F3003B083F
:1003D000F5003A08F4000A128A15C4210A128A119B
:1003E0007208303E83120313B2000A30F20000306C
:1003F000F3003D08F5003C08F4000A128A151B22A0
:100400000A128A117208303E83120313B4000A30B4
:10041000F2000030F3003D08F5003C08F4000A1239
:100420008A15C4210A128A117208303E83120313FE
:10043000B5000A30F2000030F3003F08F5003E0836
:10044000F4000A128A151B220A128A117208303E21
:1004500083120313B7000A30F2000030F3003F08A4
:10046000F5003E08F4000A128A15C4210A128A1106
:100470007208303E83120313B8003108DD003208E1
:10048000DE003408DF003508E0003708E1003808F6
:10049000E2006230A0008530A1008330A2000A167D
:1004A0008A1175260A128A11023083120313530629
:1004B000031D5B2A5C2A6D2A5808031D602A612AE5
:1004C0006D2A8830A0008630A100C030A2000A1634
:1004D0008A1175260A128A11782A3130A00000305C
:1004E000A100C030A2000A168A1175260A128A11CC
:1004F000C330F8003A300A168A118C240A128A1185
:10050000831203135303031D862A872A982A580847
:10051000031D8B2A8C2A982A8830A0008630A100DF
:10052000C530A2000A168A1175260A128A11A32A5A
:100530003430A0000030A100C530A2000A168A1194
:1005400075260A128A11C830F8003A300A168A1144
:100550008C240A128A11831203135308031DB12A33
:10056000B22AC32A5808031DB62AB72AC32A8830DC
:10057000A0008630A100CA30A2000A168A11752692
:100580000A128A11CE2A3730A0000030A100CA30EA
:10059000A2000A168A1175260A128A1108000A1684
:1005A0008A1179270A128A11013083120313C700B6
:1005B0000830C600C50101300A168A11B7250A1293
:1005C0008A1183120313C800B830C2000B30C30075
:1005D000FF30C2070318C30AFF30C307420A031DD6
:1005E000F52A430A031DF52AF62AE82A00300A16DE
:1005F0008A11B7250A128A1183120313C4002F30FF
:100600004406031D042B052B1D2B47030319092B3F
:100610000A2B1D2B8B16831603133D083E0403196A
:10062000122B132B222B0A168A110A240A128A1162
:10063000013083120313C700222B83160313BD015D
:10064000BE018B123E3083124806031D282B292B36
:10065000422B6C30F2008B30F3008630F4000A1627
:100660008A11FF240A128A116C3083120313B2001C
:100670000030B3006430B4000A128A1554230A1201
:100680008A11D52C3D304806031D472B482B712B72
:1006900005305C0203184D2B4E2B712B0130DC070B
:1006A0006C30F2005C08C0004007903E8400831765
:1006B0000008F300840A00088403F4000A168A1173
:1006C000FF240A128A116C3083120313B200003027
:1006D000B3006430B4000A128A1554230A128A1136
:1006E000D52C3B304806031D762B772B922B5C08CC
:1006F00003197B2B7C2B922B0130DC026C30F20037
:100700005C08C0004007903E840083170008F30097
:10071000840A00088403F4000A168A11FF240A12CE
:100720008A11632B4703031D962B972BD62B37304B
:10073000480603199C2B9D2BA32B2F304806031D25
:10074000A22BA32BD62B023047060319A82BA92BCB
:10075000D62B0A168A110A240A128A1140308312F3
:100760000313A0008530A1008030A2000A168A1170
:1007700075260A128A11F201C6300A168A11BE24A1
:100780000A128A11F2010F300A168A11BE240A12C7
:100790008A11A53083120313C000C00BCD2BD02BC0
:1007A000023083120313C700C601D52C033047065D
:1007B000031DDB2BDC2BD52C1F304806031DE12B42
:1007C000E22BD52C2F2C0A168A110A240A128A1120
:1007D000083083120313C700D52C0A168A110A2485
:1007E0000A128A11093083120313C700D52C0A1686
:1007F0008A110A240A128A11A03083120313B2004C
:100800008630B3006430B4000A128A1554230A12E9
:100810008A11103083120313C700D52C0A168A11CF
:100820000A240A128A11123083120313C700D52C2E
:100830000A168A110A240A128A119A3083120313A3
:10084000B2008630B3006430B4000A128A15542313
:100850000A128A11113083120313C700D52C4508E0
:10086000003A0319E32B013A0319ED2B033A03195C
:10087000F72B013A03190E2C073A0319182CD52C23
:100880006C30AF000A168A1143260A128A11DB2A3D
:10089000013083120313C7008B12F2010C300A16C9
:1008A0008A11BE240A128A11A53083120313C000D4
:1008B000C00B582C5B2CDB2A033083120313C700B8
:1008C000C6010A168A110A240A128A11F2010C3092
:1008D0000A168A11BE240A128A11A5308312031344
:1008E000C000C00B712C742C8B12DB2A4608A500AB
:1008F00048080A128A158C260A128A11053A031929
:10090000482C023A03195C2CDB2A48080A128A1583
:1009100038240A128A1183120313C500DB2A4808FF
:100920000A128A157C250A128A11DB2A48080A1243
:100930008A11A8260A128A1183120313DB00AA2C3B
:100940000A168A110A240A128A1103308312031329
:10095000C700DB2A5B08073A0319A02CDB2A0A161A
:100960008A11E1250A128A11A02C48080A128A115C
:1009700054200A128A1183120313DB008B16CA2C2F
:100980000A168A110A240A128A11013083120313EB
:10099000C700DB2A5B08073A0319C02CDB2A0A12BE
:1009A0008A15CC240A128A11DB2A83120313470802
:1009B000013A0319402C033A0319762C013A031922
:1009C000852C0B3A03198F2C013A0319AF2C193AD5
:1009D0000319962C013A0319B52C033A0319CF2CAD
:1009E000DB2A0A128A110C289D348634A3348634FB
:1009F0008E348634913486349434863497348634F5
:100A00004E344F3420344C344F3447345334203434
:100A100054344F34203444344F3457344E344C34EF
:100A20004F34413444342034213400344E346F3454
:100A300020346C346F3467347334203474346F343E
:100A40002034643477346E346C346F3461346434FD
:100A50002034213400346E346F3474346834693493
:100A60006E346734203474346F34203463346C341F
:100A700065346134723420342E342E340034203402
:100A800045344E34543445345234203420345034B8
:100A900041345334533457344F3452344434203473
:100AA00000342034573452344F344E3447342034D9
:100AB000503441345334533457344F345234443423
:100AC00020340034543449344D34453420342034F7
:100AD0002834483448343A344D344D343A3453345D
:100AE00053342934003423342034543449344D34BD
:100AF000453420342034203420342034453420340C
:100B000020345334503400345734613469347434ED
:100B10002E342E342E3466346F347234203436340E
:100B20003034733465346334003445346E34743493
:100B30006534723420344E34653477342034503484
:100B4000613473347334573464340034203459348A
:100B50006F34753420346134723465342034623437
:100B60006C346F3463346B3465346434003455341E
:100B7000413452345434203454346534733474342E
:100B8000203443346F34643465340A340D34003413
:100B900052346534203445346E34743465347234E0
:100BA0002034503461347334733457346434003433
:100BB000203461347434743465346D347034743476
:100BC0002034723465346D34613469346E340034E9
:100BD0004E346F3420346C346F34673473342034C3
:100BE000703472346534733465346E347434003464
:100BF0005034613473347334573464342034633480
:100C0000683461346E3467346534203400346334BE
:100C10006C346534613472346534643420346C343B
:100C20006F34673473342E342E34003443346834D4
:100C300061346E3467346534203470346134733415
:100C40007334773472346434003444346F3477341A
:100C50006E346C346F3461346434653464342034FD
:100C60006C346F346734003450346134733473340B
:100C70005734643420346334683461346E346734F8
:100C80006534003444346F3477346E346C346F34EC
:100C90006134643420346C346F346734003453343A
:100CA0005534433443344534533453344634553443
:100CB0004C344C34003453347534633465347334F9
:100CC0007334663475346C342034003443346C34FB
:100CD00065346134723420346C346F3467340034DA
:100CE0005334653474342034743469346D34653469
:100CF0000034563469346534773420346C346F34BE
:100D0000673400344634613469346C3464340034FC
:100D10002034203400344334203400344734313418
:100D200000344734323400344734333400344734E9
:100D30003434003443344C34003447344E340034BB
:100D40004334503400344734523400340A340034CD
:100D500083120313A8008316031333083404031DFE
:100D6000B22EB32ED92E0A168A110A240A128A111B
:100D7000953083120313A0008530A1008030A200BB
:100D80000A168A1175260A128A11F201C5300A164E
:100D90008A11BE240A128A11F2010F300A168A1132
:100DA000BE240A128A11013083160313B3000030E7
:100DB000B4003730831203132806031DE02EE12E02
:100DC0000E2F4F08803AFF0080307F02031DEA2E6D
:100DD00008304E020318ED2EEE2E0E2F8312031351
:100DE0004C08C53EF80031300A168A118C240A12CC
:100DF0008A11831203134E08CA3E840031308313D4
:100E000080000130CE070318CF0A0030CF07013031
:100E1000CC070318CD0A0030CD07372F2F308312AF
:100E200003132806031D152F162F372F4F08803A5E
:100E3000FF0080307F02031D1F2F08304E02031871
:100E4000222F232F372F831203134C08C53EF8009F
:100E500032300A168A118C240A128A118312031363
:100E60004E08CA3E8400323083138000012F0430C4
:100E7000831203134E064F04031D3F2F402F722F82
:100E80008316031335083604031D472F482F722F8E
:100E90000A168A110A240A128A11C830831203130F
:100EA000A0008530A1008030A2000A168A117526A4
:100EB0000A128A11F201C5300A168A11BE240A12DA
:100EC0008A11F2010F300A168A11BE240A128A1101
:100ED000013083160313B5000030B60083120313EC
:100EE000CC01CD01083083124E064F04031D792F2B
:100EF0007A2FED2FF2010C300A168A11BE240A1245
:100F00008A11CA30F200CE30F3000430F400003011
:100F1000F5000A128A1587200A128A1172087304D2
:100F2000031D932F942FCD2F0A168A110A240A121B
:100F30008A11F83083120313A0008530A10080309D
:100F4000A2000A168A1175260A128A115B308312D2
:100F50000313A0008630A100C030A2000A168A1137
:100F600075260A128A11831603134A08E2004B08F9
:100F7000E3004C08E4004D08E5003330831203130E
:100F8000A700BB30A600DF30A500A50BC52FA60B20
:100F9000C52FA70BC52F0730ED2F0A168A110A247B
:100FA0000A128A11343083120313A0008630A10084
:100FB0008030A2000A168A1175260A128A11823020
:100FC00083120313A0008630A100C030A2000A16CD
:100FD0008A1175260A128A11BD2F0800FF1BF82FEF
:100FE00083137F1883170008840A0319FF0A080077
:100FF0007F087F398A000408840A0319FF0A8200E7
:10100000831603139F17831203131F140800831200
:101010000313AF000A168A11CD230A128A15A030D5
:101020000A168A1124240A128A15831203132F0820
:101030000A168A1124240A128A15831203132C0813
:101040000A168A1124240A128A150A168A11D6232E
:101050000A128A15B83083120313AD000B30AE00AC
:101060000130AD020030031CAE03AE022D0A031D99
:101070003D282E0A031D3D283E2830280800003058
:10108000F6000030F5000030F4000030F300831269
:101090000313201C4C284D2864282408F307250836
:1010A00003110318013E03195628F40726080311FB
:1010B0000318013E03195D28F507270803110318DB
:1010C000013E03196428F6070130F2000310A40D55
:1010D000A50DA60DA70DF20B662801300310A30C79
:1010E000A20CA10CA00CFF3E031D6E2823082204B5
:1010F00021042004031D7D287E2847287608A300AC
:101100007508A2007408A1007308A000080001304F
:10111000F4020030031CF503F502740A031D942841
:10112000750A031D94289528A228F201F301D128FD
:101130000130F2070130F3070130F4020030031CE4
:10114000F503F50272088400831300080319A92827
:10115000AA28C3287308840000080319B028B128FE
:10116000C328740875040319B628B728C328730860
:1011700084000008F600720884000008760603194F
:10118000C228C3289828730884000008F600720853
:1011900084000008F70076087702F200F301031CD0
:1011A000F303080002300A168A11A8260A128A15CB
:1011B00083120313C90001300A168A11A8260A12E5
:1011C0008A1583120313CA0000300A168A11A82652
:1011D0000A128A1583120313CB004908AE000430AB
:1011E0000310AE0CFF3E031DF0282E080339303EDD
:1011F000DD0049080F39303EDE004A08AE000430F9
:101200000310AE0CFF3E031D00292E080739303EA7
:10121000DF004A080F39303EE0004B08AE000430D2
:101220000310AE0CFF3E031D10292E080739303E77
:10123000E1004B080F39303EE200E30108000A12DA
:101240008A15D2200A128A15C030F80083120313BF
:101250005D080A168A118C240A128A15C130F8001A
:10126000831203135E080A168A118C240A128A1547
:10127000C230F8003A300A168A118C240A128A15F4
:10128000C330F800831203135F080A168A118C24F6
:101290000A128A15C430F8008312031360080A1674
:1012A0008A118C240A128A15C530F8003A300A16C1
:1012B0008A118C240A128A15C630F800831203138F
:1012C00061080A168A118C240A128A15C730F800A0
:1012D0008312031362080A168A118C240A128A15D3
:1012E0000800C330F700CD30F600F60B7529F70B78
:1012F0007529F20133300A168A11BE240A128A15A2
:101300001B30F7009E30F600F60B8429F70B84297A
:101310000000F20133300A168A11BE240A128A151F
:10132000A630F600F60B92290000F20133300A16BF
:101330008A11BE240A128A159D299E290000F201F5
:1013400038300A168A11BE240A128A15A630F60011
:10135000F60BA8290000F20101300A168A11BE24FA
:101360000A128A15A630F600F60BB4290000F20125
:101370000C300A168A11BE240A128A15A630F6000D
:10138000F60BC02900000800F701F51FC829C9297C
:10139000D029F409F509F40A0319F50A0130F70018
:1013A000F31FD329D429D929F209F309F20A031921
:1013B000F30A720873040319DE29DF290C2A0130AD
:1013C000F600EB2901300310F20DF30DFF3E031D73
:1013D000E3290130F607F31FEE29EF29E22973080C
:1013E0007502031DF52972087402031CF829F929F6
:1013F000FF297208F4027308031CF503F50201309B
:101400000310F30CF20CFF3E031D002A0130F6021C
:10141000031D0B2A0C2AEF2977080319102A112A19
:10142000162AF409F509F40A0319F50A7508F300F8
:101430007408F200080083120313A101F31F212A8C
:10144000222A292AF209F309F20A0319F30A0130C0
:10145000A100F51F2C2A2D2A342AF409F509F40AD3
:101460000319F50A0130A106A201A3017208730451
:1014700003193B2A3C2A712A0130A000482A013076
:101480000310F20DF30DFF3E031D402A0130A007AB
:10149000F31F4B2A4C2A3F2A01300310A20DA30D43
:1014A000FF3E031D4D2A73087502031D592A720859
:1014B0007402031C5C2A5D2A642A7208F402730811
:1014C000031CF503F502221401300310F30CF20C97
:1014D000FF3E031D652A0130A002031D702A712AF8
:1014E0004C2A21080319752A762A7B2AA209A30906
:1014F000A20A0319A30A2308F3002208F200080035
:101500000030F6000030F5000030F4000030F30049
:101510008312031323082204210420040319912AAF
:10152000922ADD2A0130F700A02A0130F2000310D0
:10153000A00DA10DA20DA30DF20B972A0130F70704
:10154000A31FA32AA42A952A0130F2000310F30D49
:10155000F40DF50DF60DF20BA62A23082702031D44
:10156000BB2A22082602031DBB2A21082502031DCF
:10157000BB2A20082402031CBE2ABF2ACE2A200828
:10158000A4022108031C210FA5022208031C220F1C
:10159000A6022308031C230FA702731401300310B3
:1015A000A30CA20CA10CA00CFF3E031DCF2A0130FE
:1015B000F702031DDC2ADD2AA42A7608A300750899
:1015C000A2007408A1007308A00008000B1DE92AFE
:1015D000EA2A4D2B831203130108083E81000130D3
:1015E000F9070318FA0A0030FA0731307906753026
:1015F00003197A06031DFD2AFE2A062B01308316E5
:101600000313BD000030BE00F901FA01013083165A
:101610000313AB070318AC0A0030AC0710302B06DD
:10162000273003192C06031D162B172B252B83128D
:101630000313580803191D2B1F2B0130202B0030DA
:10164000D80083160313AB01AC010130AD070318BA
:10165000AE0A0030AE0720302D064E3003192E069C
:10166000031D332B342B4C2BAD01AE01831203131E
:10167000590803193C2B3D2B402B0130D9024C2B30
:101680005908031D442B452B4C2B5A080319492B91
:101690004A2B4C2B0130DA020B1171088A00700EB4
:1016A0008300FE0E7E0E09000A128A15D2200A124D
:1016B0008A15BF30F2005D30F3000030F4000630D0
:1016C000F5000030F6000A168A11BC270A128A15A6
:1016D000C530F200831203133208F3003308F4001C
:1016E0000230F5000030F6000A168A11BC270A12F3
:1016F0008A15C730F200831203133408F300003058
:10170000F4000230F5000030F6000A168A11BC27FA
:101710000A128A1583160313C9010A3083120313B0
:101720006902031C942B952B962BE9010A30F200D9
:1017300069080A168A1152240A128A1583120313A1
:10174000B5006B08803AFF0080307F02031DAA2B92
:1017500009306A020318AD2BAE2BB62B0130831271
:101760000313EA070318EB0A0030EB07BF308312BC
:101770000313B00035080A168A11A1240A128A152B
:10178000013083120313E90708000A168A11402466
:101790000A128A15730883160313BC007208BB0073
:1017A0003B0883120313A000831603133C08831223
:1017B0000313A100A201A3010030A7000030A6007E
:1017C0000030A5006330A4000A128A153F200A12D7
:1017D0008A15831203132308AD002208AC002108E8
:1017E000AB002008AA000030A3000030A2000330A4
:1017F000A100FF30A0002D08A7002C08A6002B0890
:10180000A5002A08A4000A128A1580220A128A1545
:10181000831203132008AE000A30F2000030F300F8
:101820002E08A800A9012808F4002908F5000A12CA
:101830008A151B220A128A157208303E831203137E
:10184000E4000A30F2000030F3002E08A800A901DD
:101850002808F4002908F5000A128A15C4210A1282
:101860008A157208303E83120313E500E601080072
:1018700083120313AB002F302B06031D402C412C89
:10188000572C5408031D452C462C492C0130D407F5
:10189000512C0330550203184E2C4F2C512C013083
:1018A000D5070A168A110A240A128A156D2C3730B8
:1018B0002B06031D5C2C5D2C6D2C54080319612C28
:1018C000622C652C0130D402512C55080319692C67
:1018D0006A2C512C0130D502512C83120313550868
:1018E000A5002507D83E840083130008A000840AC1
:1018F00000088403A1008130A2000A168A1175260F
:101900000A128A15831203135508A5002507DA3E2B
:10191000840083130008A000840A00088403A10047
:10192000C130A2000A168A1175260A128A1583127E
:101930000313540803199D2C9E2CA32C2030A700C0
:101940000030A800A72C2A30A7000030A800803063
:10195000F80027080A168A118C240A128A158312A5
:10196000031354030319B52CB62CBB2C2030A9004B
:101970000030AA00BF2C2A30A9000030AA00C030D5
:10198000F80029080A168A118C240A128A15831273
:10199000031354085507080083120313B9016B0899
:1019A00083160313B000831203136A08831603130C
:1019B000AF00831203136A0A031DE32C6B0A031999
:1019C000E22CE32C592D50085104031DE82CE92C7E
:1019D0004D2D412D83120313BA01BB018312031352
:1019E0003A082E3E84000A30F200831603133108B1
:1019F0000A168A1152240A128A1583120313390710
:101A00000A168A11DB260A128A1583138000013018
:101A100083120313B9070130BA070318BB0A003059
:101A2000BB073B08803AFF0080307F02031D1A2D60
:101A30000A303A02031C1D2D1E2DEE2C83120313B7
:101A4000B8012E30F3000030F4000A168A1169251F
:101A50000A128A15A630F3008630F4000A168A119D
:101A600069250A128A15FF3083160313AF0703187E
:101A7000B00AFF30B0070130B1070318B20A0030D6
:101A8000B20783160313B01F462D472DEA2C0130F1
:101A900083120313D0000030D1002530A00086301F
:101AA000A1008030A2000A168A1175260A128A1532
:101AB0007B2D50085104031D5E2D5F2D7B2D0030C2
:101AC000F3008530F4000A168A1169250A128A1576
:101AD000163083120313A0008530A1008030A200CD
:101AE0000A168A1175260A128A1501308312031309
:101AF000D0000030D100080083120313AF006A0A3F
:101B0000031D862D6B0A031D862D872DA02D733096
:101B1000A0008530A1008030A2000A168A11752627
:101B20000A128A15E83083120313A0008530A10041
:101B3000C030A2000A168A1175260A128A158B2E49
:101B40002F302F06031DA52DA62DB62D6B08803A2C
:101B5000803C031DAD2D6A0868020318B02DB12D1D
:101B6000B62D013083120313E807C52D37308312D9
:101B700003132F06031DBD2DBE2DC52D68080319A7
:101B8000C22DC32DC52D0130E8020A306802031CA6
:101B9000CA2DCB2DCC2DE8010A30F20068080A16B8
:101BA0008A1152240A128A1583120313AE00B0015F
:101BB000B101831203133008A03E840030082E07C1
:101BC0000A168A11DB260A128A1583138000013057
:101BD00083120313B0070318B10A0030B1073108AC
:101BE000803AFF0080307F02031DF82D0A3030025A
:101BF000031CFB2DFC2DD92D83160313AA01733072
:101C000083120313A0008530A1008030A2000A16C1
:101C10008A1175260A128A15C030F8008312031340
:101C20006808303E0A168A118C240A128A15C230BE
:101C3000F8008316031320080A168A118C240A124E
:101C40008A15C330F8008316031321080A168A1177
:101C50008C240A128A15C430F8003A300A168A1108
:101C60008C240A128A15C530F80083160313220843
:101C70000A168A118C240A128A15C630F8008316B7
:101C8000031323080A168A118C240A128A15C730F6
:101C9000F8003A300A168A118C240A128A15C830C4
:101CA000F8008316031324080A168A118C240A12DA
:101CB0008A15C930F8008316031325080A168A11FD
:101CC0008C240A128A15CB30F800831603132608D9
:101CD0000A168A118C240A128A15CC30F800831651
:101CE000031327080A168A118C240A128A15CE308B
:101CF000F8008316031328080A168A118C240A1286
:101D00008A15CF30F8008316031329080A168A11A2
:101D10008C240A128A15080083120313A900831663
:101D2000031337083804031D962E972EC42E053052
:101D300083120313DA003330D600D701AA01AB01B6
:101D4000831203132A08D33E8400831380010130D9
:101D5000AA070318AB0A0030AB072B08803AFF0034
:101D600080307F02031DB62E04302A02031CB92ED8
:101D7000BA2EA02E3F3083120313A9000130831620
:101D80000313B7000030B800831203135A08031D71
:101D9000CA2ECB2ED12E83160313B701B8010530FE
:101DA000FF2F37302906031DD62ED72EF32E0430F1
:101DB00057020318DC2EDD2EF32E5708D33E840085
:101DC0003130831380005708C63EF8002A300A16C7
:101DD0008A118C240A128A15013083120313D70743
:101DE0000530DA000F2F2F302906031DF82EF92EAB
:101DF0000F2F043057020318FE2EFF2E0F2F570807
:101E0000D33E84003230831380005708C63EF8006A
:101E10002A300A168A118C240A128A15EC2E0430F4
:101E20005706031D142F152FFE2FD330F200E2307A
:101E3000F3000A168A118F250A128A157208730494
:101E4000031D232F242F262F0730FF2F013083124D
:101E50000313D60230305606031D2F2F302F9B2F31
:101E6000F2010C300A168A11BE240A128A15A53016
:101E700083120313A600A60B3B2F3E2FA63083121E
:101E80000313A0008530A1008030A2000A168A1139
:101E900075260A128A15843083120313A000853038
:101EA000A100C030A2000A168A1175260A128A15EE
:101EB0003C3083120313D900912FCB30F8000A3045
:101EC000F2000030F3005908A600A7012608F4002C
:101ED0002708F5000A128A151B220A128A157208B1
:101EE000303E0A168A118C240A128A15CC30F8006A
:101EF0000A30F2000030F300831203135908A600E1
:101F0000A7012608F4002708F5000A128A15C42143
:101F10000A128A157208303E0A168A118C240A1297
:101F20008A15831203135908031D972F982F5D2FCD
:101F30003330D600D22F0A168A110A240A128A15C3
:101F4000513083120313A0008530A1008030A2001D
:101F50000A168A1175260A128A15C030F8008312F3
:101F6000031356080A168A118C240A128A15D830CF
:101F700083120313A0008530A100C130A2000A160D
:101F80008A1175260A128A15333083120313A800AA
:101F9000BB30A700DF30A600A60BCC2FA70BCC2FA1
:101FA000A80BCC2F0A168A110A240A128A153F3070
:101FB00083120313A0008530A1008030A2000A160E
:101FC0008A1175260A128A15F201C6300A168A117C
:101FD000BE240A128A15F2010F300A168A11BE2495
:101FE0000A128A15A53083120313A600A60BF62F3A
:101FF000F92F83120313D7010530DA0010300800DF
:10277400FF34FF344F344E340034831603130608F9
:102784003F388600080064008001840A04060319A7
:1027940000340406C62B0A168A1117240A168A1155
:1027A40083160313111408000A168A1117240A1633
:1027B4008A1183160313111508008316031381125B
:1027C400811506308312031381008B1608008316CB
:1027D40003138801091189100A128A1571210A1636
:1027E4008A1108000A168A11D6230A168A110A16B3
:1027F4008A11CD230A168A110800F2007208831286
:10280400031399000C1E072C082C042C0C1208002E
:10281400F20101300A168A11BE240A168A11A63062
:10282400F600F60B132C000008008316031314198A
:102834001C2C1D2C172C11081F39031D222C232C92
:10284400172C080083120313AB000A168A111724ED
:102854000A168A11831203132B0893000800793493
:10286400863466348634163486344234863470347E
:102874008634313432343134323400348312031325
:102884001F151F19462C472C432C1E08F5008316D0
:1028940003131E08F4007508F3007408F20008001E
:1028A400F400F301741C572C582C5A2C7208F307AB
:1028B4000310F20D0310F40C7408031D622C632C36
:1028C400542C730808007E088A007F0882000A16C8
:1028D4008A1165240A168A118000840A04087D0678
:1028E40003190034FF0A0319FE0A692C00300A1682
:1028F4008A11A8260A168A1183120313AE007F30A8
:10290400AE052E08AC0000300A168A1120250A16DE
:102914008A11080083120313A400F20178080A162E
:102924008A11BE240A168A11F201F20A83120313D1
:1029340024080A168A11BE240A168A110800831272
:102944000313B100B52C300884000008AC00310832
:102954000A128A1507200A168A11013083120313FA
:10296400B0070130B1073008840083130008031D49
:10297400BC2CBD2CA52C0800F5007218C22CC62C4A
:10298400831203130915C92C831203130911750843
:1029940088008914A630F300F30BCE2C00008312B8
:1029A400031389101B30F4009E30F300F30BD82C72
:1029B400F40BD82C00000800F2000A168A11172420
:1029C4000A168A118316031391150A168A111724FD
:1029D4000A168A11831203131308F3007203031DEA
:1029E400F42CF52CF92C831603139116FC2C831666
:1029F400031391121116730808007208F700740883
:102A0400F6007308F500F30A0319F40A7608831232
:102A14000313FF00750884000A128A11EE270A16B0
:102A24008A11FF007708F70A84007F088313800067
:102A34000008031D1E2D1F2D012D080083120313F2
:102A4400AD000A168A11CD230A168A11D0300A164F
:102A54008A1124240A168A11831203132D080A16D4
:102A64008A1124240A168A11831203132C080A16C5
:102A74008A1124240A168A110A168A11D6230A16E0
:102A84008A110800F601F701721C492D4A2D502DB8
:102A94007408F6070318F70A7508F70701300310DE
:102AA400F40DF50DFF3E031D512D01300310F30C01
:102AB400F20CFF3E031D582D72087304031D632D91
:102AC400642D462D7708F3007608F20008007E2D69
:102AD4007408FF00730884000A128A11EE270A168C
:102AE4008A110A168A11FF230A168A110130F30784
:102AF4000318F40A0030F407740883120313FF0068
:102B0400730884000A128A11EE270A168A11003A01
:102B1400031D8D2D8E2D6A2D0800942D0130F20792
:102B24000130F3077308840083130008F40072086B
:102B3400840000087406031DA02DA12DA82D720881
:102B440084000008031DA72DA82D902D7308840070
:102B54000008F400720884000008F5007408750287
:102B6400F200F301031CF3030800F3007308031DD0
:102B7400BC2DBD2DC22D8312031306083F39E02D51
:102B84003F30831203130605F2003F307206031927
:102B9400CC2DCD2DD42D7B080319D12DD22DD42DA0
:102BA400FB01BD2D3F300605F2003F307206031DC8
:102BB400DC2DDD2DDF2D0130FB003F3008008312BA
:102BC4000313EB1BE62DE72D042EFF30EA00FF3044
:102BD400EB000730A0008630A1008030A2000A1666
:102BE4008A1175260A168A111A30F8005E30F70029
:102BF4006E30F600F60BFC2DF70BFC2DF80BFC2DBC
:102C04000000102E2B30A0008530A1008030A200DF
:102C14000A168A1175260A168A11F62D08008312DF
:102C24000313981718162808AC002908AD002A08C1
:102C3400AE002B08AF0004300310AC0DAD0DAE0D8B
:102C4400AF0DFF3E031D1E2E2F08A3002E08A20069
:102C54002D08A1002C08A0000130A7003130A600E7
:102C64002D30A5000030A4000A128A1580220A160D
:102C74008A11831203132008FF3E8316031399005D
:102C840008000A128A151F210A168A110A128A15C7
:102C9400C5230A168A11743083120313A0008530E9
:102CA400A1008030A2000A168A1175260A168A111C
:102CB400831203132F08A0000030A100CA30A20021
:102CC4000A168A1175260A168A11643083120313B0
:102CD400A0000030A100CD30A2000A168A1175268A
:102CE4000A168A110800F2018312031322080A1635
:102CF4008A11BE240A168A11972EF201F20A2108BB
:102D0400FF00200884000A128A11EE270A168A118D
:102D14000A168A11BE240A168A110130831203137B
:102D2400A0070318A10A0030A10783120313210886
:102D3400FF00200884000A128A11EE270A168A115D
:102D4400003A031DA62EA72E7F2E0800831203131C
:102D5400AC000A168A11CD230A168A11D0300A163D
:102D64008A1124240A168A11831203132C080A16C2
:102D74008A1124240A168A110A168A11F4230A16BF
:102D84008A11D1300A168A1124240A168A110030B5
:102D94000A168A11DE240A168A1183120313AD005F
:102DA4000A168A11D6230A168A11831203132D08D0
:102DB400080083120313AC000A168A11CD230A16E5
:102DC4008A11A0300A168A1124240A168A11831241
:102DD40003132C080A168A1124240A168A110A16C7
:102DE4008A11F4230A168A11A1300A168A1124249E
:102DF4000A168A1100300A168A11DE240A168A116C
:102E040083120313AD000A168A11D6230A168A11F7
:102E1400831203132D080800831203139415280842
:102E2400AC002908AD002A08AE002B08AF00023020
:102E34000310AC0DAD0DAE0DAF0DFF3E031D1A2FEB
:102E44002F08A3002E08A2002D08A1002C08A00022
:102E54000130A7003130A6002D30A5000030A400B9
:102E64000A128A1580220A168A1183120313200873
:102E7400FF3E831603139300831203139416080072
:102E8400F8000A30F2000030F300780883120313CC
:102E9400A400A5012408F4002508F5000A128A15E7
:102EA400C4210A168A11720883120313A600730838
:102EB400A7000A30F2000030F3007808A800A90146
:102EC4002808F4002908F5000A128A151B220A169C
:102ED4008A11720883120313AA0003300310AA0D87
:102EE400FF3E031D702F03102A0D260408000A1646
:102EF4008A11E9230A168A110A128A1500200A1671
:102F04008A11003083120313AB000130AA0086300B
:102F1400A900A030A8000A168A110E270A168A11E1
:102F24000A168A1178240A168A110A168A11BF23EE
:102F34000A168A110A168A11DF230A168A1100302A
:102F440083120313AB000030AA002530A90080309F
:102F5400A8000A168A1111260A168A11B730F3003E
:102F64008530F4000A168A1169250A168A118B170E
:102F74000B170800720883120313A000E42F01301A
:102F8400F5020030031CF603F6027408F800730817
:102F9400F700F30A0319F40A7808FF00770884009D
:102FA4000A128A11EE270A168A11FF002008A00AC5
:102FB40084007F08831380000008031DE22FE32FA1
:102FC400E42FF12F75087604031DE92FEA2FC12F92
:102FD400F12F20088400831380010130A007013001
:102FE400F5020030031CF603F602750A031DFE2FDA
:0C2FF400760A031DFE2FFF2FEB2F0800B4
:02400E00FB3F76
:00000001FF
